{
  "_format": "hh-sol-artifact-1",
  "contractName": "PersonalDataManagerContract",
  "sourceName": "contracts/PersonalDataManagerContract.sol",
  "abi": [
    {
      "inputs": [],
      "stateMutability": "payable",
      "type": "constructor"
    },
    {
      "anonymous": false,
      "inputs": [
        {
          "indexed": true,
          "internalType": "address",
          "name": "owner",
          "type": "address"
        },
        {
          "components": [
            {
              "internalType": "uint256",
              "name": "amount",
              "type": "uint256"
            },
            {
              "internalType": "bool",
              "name": "isActivated",
              "type": "bool"
            }
          ],
          "indexed": false,
          "internalType": "struct PersonalDataManagerContract.Balance",
          "name": "balance",
          "type": "tuple"
        }
      ],
      "name": "BalanceChanged",
      "type": "event"
    },
    {
      "anonymous": false,
      "inputs": [
        {
          "indexed": true,
          "internalType": "address",
          "name": "owner",
          "type": "address"
        }
      ],
      "name": "PersonalDataAdded",
      "type": "event"
    },
    {
      "inputs": [
        {
          "internalType": "uint256",
          "name": "price",
          "type": "uint256"
        },
        {
          "internalType": "string",
          "name": "fullName",
          "type": "string"
        },
        {
          "internalType": "string",
          "name": "emailAddresses",
          "type": "string"
        },
        {
          "internalType": "string",
          "name": "phoneNumbers",
          "type": "string"
        },
        {
          "internalType": "string",
          "name": "socialLinks",
          "type": "string"
        }
      ],
      "name": "addPersonalData",
      "outputs": [],
      "stateMutability": "nonpayable",
      "type": "function"
    },
    {
      "inputs": [
        {
          "internalType": "address",
          "name": "",
          "type": "address"
        }
      ],
      "name": "balances",
      "outputs": [
        {
          "internalType": "uint256",
          "name": "amount",
          "type": "uint256"
        },
        {
          "internalType": "bool",
          "name": "isActivated",
          "type": "bool"
        }
      ],
      "stateMutability": "view",
      "type": "function"
    },
    {
      "inputs": [],
      "name": "deposit",
      "outputs": [],
      "stateMutability": "payable",
      "type": "function"
    },
    {
      "inputs": [
        {
          "internalType": "address",
          "name": "dataOwner",
          "type": "address"
        }
      ],
      "name": "getDataPrice",
      "outputs": [
        {
          "internalType": "uint256",
          "name": "",
          "type": "uint256"
        }
      ],
      "stateMutability": "view",
      "type": "function"
    },
    {
      "inputs": [
        {
          "internalType": "address",
          "name": "owner",
          "type": "address"
        }
      ],
      "name": "getFullPersonalData",
      "outputs": [
        {
          "components": [
            {
              "components": [
                {
                  "internalType": "uint256",
                  "name": "amount",
                  "type": "uint256"
                },
                {
                  "internalType": "bool",
                  "name": "isActivated",
                  "type": "bool"
                }
              ],
              "internalType": "struct PersonalDataManagerContract.Balance",
              "name": "balance",
              "type": "tuple"
            },
            {
              "components": [
                {
                  "internalType": "address",
                  "name": "owner",
                  "type": "address"
                },
                {
                  "internalType": "bool",
                  "name": "verified",
                  "type": "bool"
                },
                {
                  "internalType": "uint256",
                  "name": "price",
                  "type": "uint256"
                },
                {
                  "internalType": "string",
                  "name": "fullName",
                  "type": "string"
                },
                {
                  "internalType": "string",
                  "name": "emailAddresses",
                  "type": "string"
                },
                {
                  "internalType": "string",
                  "name": "phoneNumbers",
                  "type": "string"
                },
                {
                  "internalType": "string",
                  "name": "socialLinks",
                  "type": "string"
                }
              ],
              "internalType": "struct PersonalDataManagerContract.PersonalData",
              "name": "personalData",
              "type": "tuple"
            }
          ],
          "internalType": "struct PersonalDataManagerContract.FullPersonalData",
          "name": "",
          "type": "tuple"
        }
      ],
      "stateMutability": "view",
      "type": "function"
    },
    {
      "inputs": [
        {
          "internalType": "address",
          "name": "dataOwner",
          "type": "address"
        }
      ],
      "name": "getPersonalDataAccess",
      "outputs": [],
      "stateMutability": "nonpayable",
      "type": "function"
    },
    {
      "inputs": [],
      "name": "getPointsBalance",
      "outputs": [
        {
          "internalType": "uint256",
          "name": "",
          "type": "uint256"
        }
      ],
      "stateMutability": "view",
      "type": "function"
    },
    {
      "inputs": [],
      "name": "withdraw10",
      "outputs": [],
      "stateMutability": "nonpayable",
      "type": "function"
    }
  ],
  "bytecode": "0x6080604052620000336040518060c001604052806090815260200162002ea9609091396200004e60201b620014581760201c565b60146005819055506509184e72a000600681905550620001e2565b620000ee816040516024016200006591906200015b565b6040516020818303038152906040527f41304fac000000000000000000000000000000000000000000000000000000007bffffffffffffffffffffffffffffffffffffffffffffffffffffffff19166020820180517bffffffffffffffffffffffffffffffffffffffffffffffffffffffff8381831617835250505050620000f160201b60201c565b50565b60008151905060006a636f6e736f6c652e6c6f679050602083016000808483855afa5050505050565b600062000127826200017f565b6200013381856200018a565b9350620001458185602086016200019b565b6200015081620001d1565b840191505092915050565b600060208201905081810360008301526200017781846200011a565b905092915050565b600081519050919050565b600082825260208201905092915050565b60005b83811015620001bb5780820151818401526020810190506200019e565b83811115620001cb576000848401525b50505050565b6000601f19601f8301169050919050565b612cb780620001f26000396000f3fe60806040526004361061007b5760003560e01c80638eb89a611161004e5780638eb89a611461013b578063b011e82514610166578063d0e30db01461018f578063eb40bd7f146101995761007b565b8063016d4bfd1461008057806327e235e3146100975780633cb93b7c146100d5578063403f074814610112575b600080fd5b34801561008c57600080fd5b506100956101d6565b005b3480156100a357600080fd5b506100be60048036038101906100b99190611ddb565b6103b0565b6040516100cc92919061250b565b60405180910390f35b3480156100e157600080fd5b506100fc60048036038101906100f79190611ddb565b6103e1565b60405161010991906124f0565b60405180910390f35b34801561011e57600080fd5b5061013960048036038101906101349190611ddb565b6105a2565b005b34801561014757600080fd5b50610150610b60565b60405161015d91906124f0565b60405180910390f35b34801561017257600080fd5b5061018d60048036038101906101889190611e04565b610c69565b005b610197610f4a565b005b3480156101a557600080fd5b506101c060048036038101906101bb9190611ddb565b610fcf565b6040516101cd91906124ce565b60405180910390f35b6102146040518060400160405280601581526020017f7769746864726177696e6720313020706f696e74730000000000000000000000815250611458565b6005546000803373ffffffffffffffffffffffffffffffffffffffff1673ffffffffffffffffffffffffffffffffffffffff16815260200190815260200160002060000154101561029a576040517f08c379a000000000000000000000000000000000000000000000000000000000815260040161029190612493565b60405180910390fd5b6000600a90506000600654826102b09190612649565b90506102bc33836114f1565b804710156102ff576040517f08c379a00000000000000000000000000000000000000000000000000000000081526004016102f690612413565b60405180910390fd5b60003373ffffffffffffffffffffffffffffffffffffffff168260405161032590612246565b60006040518083038185875af1925050503d8060008114610362576040519150601f19603f3d011682016040523d82523d6000602084013e610367565b606091505b50509050806103ab576040517f08c379a00000000000000000000000000000000000000000000000000000000081526004016103a290612453565b60405180910390fd5b505050565b60006020528060005260406000206000915090508060000154908060010160009054906101000a900460ff16905082565b60006104066040518060600160405280602e8152602001612c25602e9139338461165c565b6104886040518060400160405280601281526020017f257320636f73747320257320706f696e7473000000000000000000000000000081525083600260008673ffffffffffffffffffffffffffffffffffffffff1673ffffffffffffffffffffffffffffffffffffffff168152602001908152602001600020600101546116fb565b8173ffffffffffffffffffffffffffffffffffffffff16600260008473ffffffffffffffffffffffffffffffffffffffff1673ffffffffffffffffffffffffffffffffffffffff16815260200190815260200160002060000160009054906101000a900473ffffffffffffffffffffffffffffffffffffffff1673ffffffffffffffffffffffffffffffffffffffff1614610558576040517f08c379a000000000000000000000000000000000000000000000000000000000815260040161054f906123f3565b60405180910390fd5b600260008373ffffffffffffffffffffffffffffffffffffffff1673ffffffffffffffffffffffffffffffffffffffff168152602001908152602001600020600101549050919050565b6105c56040518060600160405280602f8152602001612c53602f9139338361165c565b6105ce3361179a565b6000600260008373ffffffffffffffffffffffffffffffffffffffff1673ffffffffffffffffffffffffffffffffffffffff1681526020019081526020016000206040518060e00160405290816000820160009054906101000a900473ffffffffffffffffffffffffffffffffffffffff1673ffffffffffffffffffffffffffffffffffffffff1673ffffffffffffffffffffffffffffffffffffffff1681526020016000820160149054906101000a900460ff16151515158152602001600182015481526020016002820180546106a590612778565b80601f01602080910402602001604051908101604052809291908181526020018280546106d190612778565b801561071e5780601f106106f35761010080835404028352916020019161071e565b820191906000526020600020905b81548152906001019060200180831161070157829003601f168201915b5050505050815260200160038201805461073790612778565b80601f016020809104026020016040519081016040528092919081815260200182805461076390612778565b80156107b05780601f10610785576101008083540402835291602001916107b0565b820191906000526020600020905b81548152906001019060200180831161079357829003601f168201915b505050505081526020016004820180546107c990612778565b80601f01602080910402602001604051908101604052809291908181526020018280546107f590612778565b80156108425780601f1061081757610100808354040283529160200191610842565b820191906000526020600020905b81548152906001019060200180831161082557829003601f168201915b5050505050815260200160058201805461085b90612778565b80601f016020809104026020016040519081016040528092919081815260200182805461088790612778565b80156108d45780601f106108a9576101008083540402835291602001916108d4565b820191906000526020600020905b8154815290600101906020018083116108b757829003601f168201915b505050505081525050905080604001516000803373ffffffffffffffffffffffffffffffffffffffff1673ffffffffffffffffffffffffffffffffffffffff168152602001908152602001600020600001541015610967576040517f08c379a000000000000000000000000000000000000000000000000000000000815260040161095e906123d3565b60405180910390fd5b8173ffffffffffffffffffffffffffffffffffffffff16816000015173ffffffffffffffffffffffffffffffffffffffff16146109d9576040517f08c379a00000000000000000000000000000000000000000000000000000000081526004016109d0906123f3565b60405180910390fd5b6109e7828260400151611922565b6109f53382604001516114f1565b610a5e6040518060600160405280603f8152602001612bb7603f91398383604001516000808773ffffffffffffffffffffffffffffffffffffffff1673ffffffffffffffffffffffffffffffffffffffff16815260200190815260200160002060000154611a09565b610ac76040518060600160405280603d8152602001612afb603d91393383604001516000803373ffffffffffffffffffffffffffffffffffffffff1673ffffffffffffffffffffffffffffffffffffffff16815260200190815260200160002060000154611a09565b6001600460008473ffffffffffffffffffffffffffffffffffffffff1673ffffffffffffffffffffffffffffffffffffffff16815260200190815260200160002060003373ffffffffffffffffffffffffffffffffffffffff1673ffffffffffffffffffffffffffffffffffffffff16815260200190815260200160002060006101000a81548160ff0219169083151502179055505050565b6000610ba16040518060400160405280601c81526020017f2573206973207175657279696e672074686569722062616c616e63650000000081525033611aab565b610c226040518060400160405280601081526020017f25732068617320257320706f696e747300000000000000000000000000000000815250336000803373ffffffffffffffffffffffffffffffffffffffff1673ffffffffffffffffffffffffffffffffffffffff168152602001908152602001600020600001546116fb565b6000803373ffffffffffffffffffffffffffffffffffffffff1673ffffffffffffffffffffffffffffffffffffffff16815260200190815260200160002060000154905090565b610c723361179a565b6040518060e001604052803373ffffffffffffffffffffffffffffffffffffffff16815260200160001515815260200186815260200185815260200184815260200183815260200182815250600260003373ffffffffffffffffffffffffffffffffffffffff1673ffffffffffffffffffffffffffffffffffffffff16815260200190815260200160002060008201518160000160006101000a81548173ffffffffffffffffffffffffffffffffffffffff021916908373ffffffffffffffffffffffffffffffffffffffff16021790555060208201518160000160146101000a81548160ff021916908315150217905550604082015181600101556060820151816002019080519060200190610d8a929190611c0f565b506080820151816003019080519060200190610da7929190611c0f565b5060a0820151816004019080519060200190610dc4929190611c0f565b5060c0820151816005019080519060200190610de1929190611c0f565b509050506003339080600181540180825580915050600190039060005260206000200160009091909190916101000a81548173ffffffffffffffffffffffffffffffffffffffff021916908373ffffffffffffffffffffffffffffffffffffffff1602179055506001600460003373ffffffffffffffffffffffffffffffffffffffff1673ffffffffffffffffffffffffffffffffffffffff16815260200190815260200160002060003373ffffffffffffffffffffffffffffffffffffffff1673ffffffffffffffffffffffffffffffffffffffff16815260200190815260200160002060006101000a81548160ff021916908315150217905550610f006040518060600160405280602f8152602001612bf6602f913933876116fb565b3373ffffffffffffffffffffffffffffffffffffffff167f698ec8996cf0936eb1e1531823ce8a74e3ee8b67d85afcdcdae8c3ef787b4e8160405160405180910390a25050505050565b600060065434610f5a9190612618565b905060008111610f9f576040517f08c379a0000000000000000000000000000000000000000000000000000000008152600401610f9690612433565b60405180910390fd5b610fc26040518060600160405280602b8152602001612b8c602b91393483611b47565b610fcc3382611922565b50565b610fd7611c95565b610ffa6040518060600160405280602c8152602001612b38602c9139338461165c565b600460008373ffffffffffffffffffffffffffffffffffffffff1673ffffffffffffffffffffffffffffffffffffffff16815260200190815260200160002060003373ffffffffffffffffffffffffffffffffffffffff1673ffffffffffffffffffffffffffffffffffffffff16815260200190815260200160002060009054906101000a900460ff166110c3576040517f08c379a00000000000000000000000000000000000000000000000000000000081526004016110ba906123b3565b60405180910390fd5b60405180604001604052806000803373ffffffffffffffffffffffffffffffffffffffff1673ffffffffffffffffffffffffffffffffffffffff168152602001908152602001600020604051806040016040529081600082015481526020016001820160009054906101000a900460ff1615151515815250508152602001600260008573ffffffffffffffffffffffffffffffffffffffff1673ffffffffffffffffffffffffffffffffffffffff1681526020019081526020016000206040518060e00160405290816000820160009054906101000a900473ffffffffffffffffffffffffffffffffffffffff1673ffffffffffffffffffffffffffffffffffffffff1673ffffffffffffffffffffffffffffffffffffffff1681526020016000820160149054906101000a900460ff161515151581526020016001820154815260200160028201805461121690612778565b80601f016020809104026020016040519081016040528092919081815260200182805461124290612778565b801561128f5780601f106112645761010080835404028352916020019161128f565b820191906000526020600020905b81548152906001019060200180831161127257829003601f168201915b505050505081526020016003820180546112a890612778565b80601f01602080910402602001604051908101604052809291908181526020018280546112d490612778565b80156113215780601f106112f657610100808354040283529160200191611321565b820191906000526020600020905b81548152906001019060200180831161130457829003601f168201915b5050505050815260200160048201805461133a90612778565b80601f016020809104026020016040519081016040528092919081815260200182805461136690612778565b80156113b35780601f10611388576101008083540402835291602001916113b3565b820191906000526020600020905b81548152906001019060200180831161139657829003601f168201915b505050505081526020016005820180546113cc90612778565b80601f01602080910402602001604051908101604052809291908181526020018280546113f890612778565b80156114455780601f1061141a57610100808354040283529160200191611445565b820191906000526020600020905b81548152906001019060200180831161142857829003601f168201915b5050505050815250508152509050919050565b6114ee8160405160240161146c919061225b565b6040516020818303038152906040527f41304fac000000000000000000000000000000000000000000000000000000007bffffffffffffffffffffffffffffffffffffffffffffffffffffffff19166020820180517bffffffffffffffffffffffffffffffffffffffffffffffffffffffff8381831617835250505050611be6565b50565b806000808473ffffffffffffffffffffffffffffffffffffffff1673ffffffffffffffffffffffffffffffffffffffff168152602001908152602001600020600001541015611575576040517f08c379a000000000000000000000000000000000000000000000000000000000815260040161156c90612473565b60405180910390fd5b806000808473ffffffffffffffffffffffffffffffffffffffff1673ffffffffffffffffffffffffffffffffffffffff16815260200190815260200160002060000160008282546115c691906126a3565b925050819055508173ffffffffffffffffffffffffffffffffffffffff167ffbcd9c8445a12accd9c9c954073326c27170698e75ef02b1217b92b5fc14387a6000808573ffffffffffffffffffffffffffffffffffffffff1673ffffffffffffffffffffffffffffffffffffffff16815260200190815260200160002060405161165091906124b3565b60405180910390a25050565b6116f6838383604051602401611674939291906122ad565b6040516020818303038152906040527ffcec75e0000000000000000000000000000000000000000000000000000000007bffffffffffffffffffffffffffffffffffffffffffffffffffffffff19166020820180517bffffffffffffffffffffffffffffffffffffffffffffffffffffffff8381831617835250505050611be6565b505050565b611795838383604051602401611713939291906122eb565b6040516020818303038152906040527f07c81217000000000000000000000000000000000000000000000000000000007bffffffffffffffffffffffffffffffffffffffffffffffffffffffff19166020820180517bffffffffffffffffffffffffffffffffffffffffffffffffffffffff8381831617835250505050611be6565b505050565b6000808273ffffffffffffffffffffffffffffffffffffffff1673ffffffffffffffffffffffffffffffffffffffff16815260200190815260200160002060010160009054906101000a900460ff1661191f576040518060400160405280600a8152602001600115158152506000808373ffffffffffffffffffffffffffffffffffffffff1673ffffffffffffffffffffffffffffffffffffffff1681526020019081526020016000206000820151816000015560208201518160010160006101000a81548160ff0219169083151502179055509050508073ffffffffffffffffffffffffffffffffffffffff167ffbcd9c8445a12accd9c9c954073326c27170698e75ef02b1217b92b5fc14387a6000808473ffffffffffffffffffffffffffffffffffffffff1673ffffffffffffffffffffffffffffffffffffffff1681526020019081526020016000206040516118f491906124b3565b60405180910390a261191e604051806060016040528060288152602001612b646028913982611aab565b5b50565b806000808473ffffffffffffffffffffffffffffffffffffffff1673ffffffffffffffffffffffffffffffffffffffff168152602001908152602001600020600001600082825461197391906125c2565b925050819055508173ffffffffffffffffffffffffffffffffffffffff167ffbcd9c8445a12accd9c9c954073326c27170698e75ef02b1217b92b5fc14387a6000808573ffffffffffffffffffffffffffffffffffffffff1673ffffffffffffffffffffffffffffffffffffffff1681526020019081526020016000206040516119fd91906124b3565b60405180910390a25050565b611aa584848484604051602401611a239493929190612329565b6040516020818303038152906040527fdaa394bd000000000000000000000000000000000000000000000000000000007bffffffffffffffffffffffffffffffffffffffffffffffffffffffff19166020820180517bffffffffffffffffffffffffffffffffffffffffffffffffffffffff8381831617835250505050611be6565b50505050565b611b438282604051602401611ac192919061227d565b6040516020818303038152906040527f319af333000000000000000000000000000000000000000000000000000000007bffffffffffffffffffffffffffffffffffffffffffffffffffffffff19166020820180517bffffffffffffffffffffffffffffffffffffffffffffffffffffffff8381831617835250505050611be6565b5050565b611be1838383604051602401611b5f93929190612375565b6040516020818303038152906040527f969cdd03000000000000000000000000000000000000000000000000000000007bffffffffffffffffffffffffffffffffffffffffffffffffffffffff19166020820180517bffffffffffffffffffffffffffffffffffffffffffffffffffffffff8381831617835250505050611be6565b505050565b60008151905060006a636f6e736f6c652e6c6f679050602083016000808483855afa5050505050565b828054611c1b90612778565b90600052602060002090601f016020900481019282611c3d5760008555611c84565b82601f10611c5657805160ff1916838001178555611c84565b82800160010185558215611c84579182015b82811115611c83578251825591602001919060010190611c68565b5b509050611c919190611cbb565b5090565b6040518060400160405280611ca8611cd8565b8152602001611cb5611cf4565b81525090565b5b80821115611cd4576000816000905550600101611cbc565b5090565b6040518060400160405280600081526020016000151581525090565b6040518060e00160405280600073ffffffffffffffffffffffffffffffffffffffff16815260200160001515815260200160008152602001606081526020016060815260200160608152602001606081525090565b6000611d5c611d5784612559565b612534565b905082815260208101848484011115611d7457600080fd5b611d7f848285612736565b509392505050565b600081359050611d9681612acc565b92915050565b600082601f830112611dad57600080fd5b8135611dbd848260208601611d49565b91505092915050565b600081359050611dd581612ae3565b92915050565b600060208284031215611ded57600080fd5b6000611dfb84828501611d87565b91505092915050565b600080600080600060a08688031215611e1c57600080fd5b6000611e2a88828901611dc6565b955050602086013567ffffffffffffffff811115611e4757600080fd5b611e5388828901611d9c565b945050604086013567ffffffffffffffff811115611e7057600080fd5b611e7c88828901611d9c565b935050606086013567ffffffffffffffff811115611e9957600080fd5b611ea588828901611d9c565b925050608086013567ffffffffffffffff811115611ec257600080fd5b611ece88828901611d9c565b9150509295509295909350565b611ee4816126ee565b82525050565b611ef3816126ee565b82525050565b611f0281612700565b82525050565b611f1181612700565b82525050565b6000611f228261258a565b611f2c81856125a0565b9350611f3c818560208601612745565b611f45816128cb565b840191505092915050565b6000611f5b8261258a565b611f6581856125b1565b9350611f75818560208601612745565b611f7e816128cb565b840191505092915050565b6000611f966035836125b1565b9150611fa1826128e9565b604082019050919050565b6000611fb9602d836125b1565b9150611fc482612938565b604082019050919050565b6000611fdc6022836125b1565b9150611fe782612987565b604082019050919050565b6000611fff6018836125b1565b915061200a826129d6565b602082019050919050565b60006120226016836125b1565b915061202d826129ff565b602082019050919050565b60006120456026836125b1565b915061205082612a28565b604082019050919050565b60006120686014836125b1565b915061207382612a77565b602082019050919050565b600061208b600083612595565b915061209682612aa0565b600082019050919050565b60006120ae6020836125b1565b91506120b982612aa3565b602082019050919050565b6040820160008201516120da6000850182612228565b5060208201516120ed6020850182611ef9565b50505050565b604082016000808301549050612108816127c4565b6121156000860182612228565b5060018301549050612126816127aa565b6121336020860182611ef9565b5050505050565b600060608301600083015161215260008601826120c4565b506020830151848203604086015261216a8282612177565b9150508091505092915050565b600060e08301600083015161218f6000860182611edb565b5060208301516121a26020860182611ef9565b5060408301516121b56040860182612228565b50606083015184820360608601526121cd8282611f17565b915050608083015184820360808601526121e78282611f17565b91505060a083015184820360a08601526122018282611f17565b91505060c083015184820360c086015261221b8282611f17565b9150508091505092915050565b6122318161272c565b82525050565b6122408161272c565b82525050565b60006122518261207e565b9150819050919050565b600060208201905081810360008301526122758184611f50565b905092915050565b600060408201905081810360008301526122978185611f50565b90506122a66020830184611eea565b9392505050565b600060608201905081810360008301526122c78186611f50565b90506122d66020830185611eea565b6122e36040830184611eea565b949350505050565b600060608201905081810360008301526123058186611f50565b90506123146020830185611eea565b6123216040830184612237565b949350505050565b600060808201905081810360008301526123438187611f50565b90506123526020830186611eea565b61235f6040830185612237565b61236c6060830184612237565b95945050505050565b6000606082019050818103600083015261238f8186611f50565b905061239e6020830185612237565b6123ab6040830184612237565b949350505050565b600060208201905081810360008301526123cc81611f89565b9050919050565b600060208201905081810360008301526123ec81611fac565b9050919050565b6000602082019050818103600083015261240c81611fcf565b9050919050565b6000602082019050818103600083015261242c81611ff2565b9050919050565b6000602082019050818103600083015261244c81612015565b9050919050565b6000602082019050818103600083015261246c81612038565b9050919050565b6000602082019050818103600083015261248c8161205b565b9050919050565b600060208201905081810360008301526124ac816120a1565b9050919050565b60006040820190506124c860008301846120f3565b92915050565b600060208201905081810360008301526124e8818461213a565b905092915050565b60006020820190506125056000830184612237565b92915050565b60006040820190506125206000830185612237565b61252d6020830184611f08565b9392505050565b600061253e61254f565b905061254a82826127de565b919050565b6000604051905090565b600067ffffffffffffffff8211156125745761257361289c565b5b61257d826128cb565b9050602081019050919050565b600081519050919050565b600081905092915050565b600082825260208201905092915050565b600082825260208201905092915050565b60006125cd8261272c565b91506125d88361272c565b9250827fffffffffffffffffffffffffffffffffffffffffffffffffffffffffffffffff0382111561260d5761260c61280f565b5b828201905092915050565b60006126238261272c565b915061262e8361272c565b92508261263e5761263d61283e565b5b828204905092915050565b60006126548261272c565b915061265f8361272c565b9250817fffffffffffffffffffffffffffffffffffffffffffffffffffffffffffffffff04831182151516156126985761269761280f565b5b828202905092915050565b60006126ae8261272c565b91506126b98361272c565b9250828210156126cc576126cb61280f565b5b828203905092915050565b600060ff82169050919050565b6000819050919050565b60006126f98261270c565b9050919050565b60008115159050919050565b600073ffffffffffffffffffffffffffffffffffffffff82169050919050565b6000819050919050565b82818337600083830152505050565b60005b83811015612763578082015181840152602081019050612748565b83811115612772576000848401525b50505050565b6000600282049050600182168061279057607f821691505b602082108114156127a4576127a361286d565b5b50919050565b60006127bd6127b8836128dc565b6126d7565b9050919050565b60006127d76127d2836128dc565b6126e4565b9050919050565b6127e7826128cb565b810181811067ffffffffffffffff821117156128065761280561289c565b5b80604052505050565b7f4e487b7100000000000000000000000000000000000000000000000000000000600052601160045260246000fd5b7f4e487b7100000000000000000000000000000000000000000000000000000000600052601260045260246000fd5b7f4e487b7100000000000000000000000000000000000000000000000000000000600052602260045260246000fd5b7f4e487b7100000000000000000000000000000000000000000000000000000000600052604160045260246000fd5b6000601f19601f8301169050919050565b60008160001c9050919050565b7f596f7520646f206e6f7420686176652061636365737320746f2074686520726560008201527f7175657374656420706572736f6e616c20646174610000000000000000000000602082015250565b7f596f75206861766520696e73756666696369656e7420706f696e747320746f2060008201527f6765742074686973206461746100000000000000000000000000000000000000602082015250565b7f546865206164647265737320686173206e6f7420616464656420616e7920646160008201527f7461000000000000000000000000000000000000000000000000000000000000602082015250565b7f436f6e74726163742062616c616e636520746f6f206c6f770000000000000000600082015250565b7f496e76616c6964206465706f73697420616d6f756e7400000000000000000000600082015250565b7f4661696c656420746f207769746864726177206d6f6e65792066726f6d20636f60008201527f6e74726163740000000000000000000000000000000000000000000000000000602082015250565b7f496e73756666696369656e742042616c616e6365000000000000000000000000600082015250565b50565b7f496e73756666696369656e742042616c616e636520746f207769746864726177600082015250565b612ad5816126ee565b8114612ae057600080fd5b50565b612aec8161272c565b8114612af757600080fd5b5056fe44656269746564207175657279206d616b657220257320627920257320706f696e74732e204e65772062616c616e636520697320257320706f696e747325732069732072657175657374696e6720666f722074686520706572736f6e616c2064617461206f662025734163746976617465642064656661756c7420696e697469616c2062616c616e636520666f722025734465706f736974696e672025732077656920696e2065786368616e676520666f7220257320706f696e747343726564697465642064617461206f776e6572202573207769746820257320706f696e74732e204e65772062616c616e636520697320257320706f696e7473257320686173206c697374656420746865697220706572736f6e616c206461746120666f7220257320706f696e74732573206973207175657279696e6720746865207072696365206f66202573277320706572736f6e616c206461746125732069732065786368616e67696e6720706f696e747320666f7220706572736f6e616c2064617461206f66202573a26469706673582212205185918474644cbb381ad90ae47f991cae4211c5994bd4d47d356f6795f9266364736f6c634300080400335468697320697320612073696d706c6520706572736f6e616c2064617461206d616e616765722e2044617461206f776e6572732063616e2061646420746865697220706572736f6e616c206461746120666f7220667265652e20546865792067657420706f696e747320696e2065786368616e676520666f72207175657269657320666f722074686569722064617461",
  "linkReferences": {},
  "deployedLinkReferences": {}
}